S014000050726F6A65637431343031612E7372656312
S214080000C024072025030800210308002103080050
S214080010210308002103080021030800000000004F
S2140800200000000000000000000000002103080097
S214080030210308000000000021030800210308002F
S21408004021030800210308002103080021030800F3
S21408005021030800210308002103080021030800E3
S214080060210308002103080000000000B102080070
S214080070CD020800E9020800050308000000000099
S21408008000000000210308002103080021030800DF
S21408009021030800210308002103080021030800A3
S2140800A021030800000000002103080021030800BF
S2140800B02103080021030800210308002103080083
S2140800C02103080021030800210308002103080073
S2140800D02103080021030800210308002103080063
S2140800E02103080021030800210308002103080053
S2140800F02103080008B50548054B191A062900D833
S21408010008BD044A002AFBD09047F9E7BC0508005A
S214080110BF0508000000000008B50748074B191A75
S2140801208A1002EBD273591000D108BD044A002A7F
S214080130FBD09047F9E700BFBC050800BC050800DF
S2140801400000000010B5064C237843B9FFF7D2FF2D
S214080150044810B10448AFF300800121217010BD97
S2140801603004072000000000BC05080008B5084B4E
S2140801701BB108480849AFF300800848016811B168
S214080180074A02B19047BDE80840FFF7C5BF00BF61
S21408019000000000BC05080034040720BC05080061
S2140801A0000000004FF0010303FA00F0704700BF9C
S2140801B008B540F2A513C0F2080398474FF48051DB
S2140801C0C4F20E01086041F21002C4F20E0210607A
S2140801D04FF48553C4F20E03186008BD70B582B09C
S2140801E04FF01B0040F2B113C0F2080398474FF0D7
S2140801F01B0040F2A511C0F2080188474FF0000620
S21408020041F23005C4F20E054FF4D451C0F206018F
S21408021041F23404C4F20E04019628600B46019A93
S21408022002F10102019203F1FF33019A02F1010281
S2140802300192013BF3D120600B46019A02F10102BC
S214080240019203F1FF33019A02F101020192013B88
S214080250F3D1E1E7C06C7047806C7047F8B5044688
S2140802600E4640F25523C0F2080398470546204636
S21408027040F25921C0F208018847054014D00B4CBB
S214080280274654F80C0CB0420AD154F8081C2942E8
S21408029006D022683046904754F8083C25EA0305FD
S2140802A004F11004002DEBD1F8BD00BF5804072058
S2140802B008B54FF46060C4F20E004FF00B0140F230
S2140802C05D23C0F20803984708BD00BF08B54FF481
S2140802D08050C4F20E004FF00C0140F25D23C0F2CD
S2140802E00803984708BD00BF08B54FF49050C4F2FD
S2140802F00E004FF00D0140F25D23C0F20803984748
S21408030008BD00BF08B54FF4A050C4F20E004FF069
S2140803100E0140F25D23C0F20803984708BD00BFEF
S214080320FEE700BF38B540F20003C2F2070340F20A
S214080330BC52C0F208029A4203D040484049814263
S21408034004D3404B404A9A4225D342E03F4D404CA6
S214080350631B23F003054FF0000340F20002C2F2CD
S214080360070240F2BC51C0F2080105F10400C5F3CB
S21408037080045D589D5003F10403834255D1E0E79D
S2140803805D589D5003F104035C589C5003F1040328
S2140803908342F5D1D5E72F4D2F49481B20F003049B
S2140803A040F23043C2F20703E2184FF00001501B38
S2140803B0A0F10400C0F3800445F8041F95422DD12F
S2140803C007E005F10403696005F1080559609542E0
S2140803D0F7D140F20005C0F2080525F0604222F089
S2140803E07F014FF46D40CEF20000816005F1604455
S2140803F0B4F5801F07D24FF46D43CEF200039D6814
S21408040045F000529A6040F22551C0F2080188472C
S21408041040F2DD10C0F208008047FEE7002CD0D07E
S21408042045F8041F9542CCD1D3E7002CA8D05C58D9
S2140804309C5003F104038342A2D182E730040720CC
S21408044000000720BC04072030040720040007200B
S214080450330407202C040720B70407202DE9F843A7
S2140804609846234B06461C680F46D4F84801914622
S21408047018B904F5A670C4F8480141681F2916DDA6
S2140804801C4818B94FF0FF30BDE8F8834FF4C87021
S214080490AFF300800028F5D0D4F848210025456041
S2140804A00260C4F84801C0F88851C0F88C51B6B14B
S2140804B04468012202FA04F2D0F8881100EB84039B
S2140804C01143022EC3F88890C0F888111C46C3F85A
S2140804D0088104D1D0F88C311A43C0F88C214168C1
S2140804E08B1C4A1C40F8237042600020BDE8F88345
S2140804F0900508000000000070B5084B084C002561
S214080500E01A841003EB8406043D1CB17259904728
S214080510013CF9E7BDE8704000F048B8B8050800A7
S214080520BC05080038B50E4D0E4B0024E81A851099
S214080530AC4205D00B4951F8242090470134F7E720
S21408054000F02AF80849094A541AA5100024AC42B3
S21408055005D0054B53F8240080470134F7E738BD2B
S214080560A4050800A4050800A4050800AC050800B2
S214080570024B13B1024800F005B8704700000000AF
S214080580F90408000146002002460346FFF766BF46
S2140805900800072043000000F8B500BFF8BC08BCF8
S2140805A09E467047710508006D010800F8B500BF43
S2100805B0F8BC08BC9E46704745010800D1
S2140805BC080007200000000000000000F4020720D6
S2140805CC5C030720C403072000000000000000009E
S2140805DC0000000000000000000000000000000002
S2140805EC0000000000000000000000009405080051
S2140805FC00000000000000000000000000000000E2
S21408060C00000000000000000000000000000000D1
S21408061C00000000000000000000000000000000C1
S21408062C00000000000000000000000000000000B1
S21408063C00000000000000000000000000000000A1
S21408064C0000000000000000000000000000000091
S21408065C0000000000000000000000000000000081
S21408066C01000000000000000E33CDAB34126DE61E
S21408067CECDE05000B000000000000000000000087
S21408068C0000000000000000000000000000000051
S21408069C0000000000000000000000000000000041
S2140806AC0000000000000000000000000000000031
S2140806BC0000000000000000000000000000000021
S804080325CB
